:020000040000FA
:08000000803102288731F92F3D
:100D56002100970108007A302100990022009601AF
:100D660008008631BE2686318631AE26863186312A
:100D7600AB268631080022008C018D018E013F30A2
:100D860021008C00F0308D00FF308E000F302300E4
:100D96008E008D0117308C0024008D018C012100FE
:100DA600951722009D0108002C0092019501220052
:100DB6000C168C167308803AF40080307402031DFA
:100DC600E62E01307202031CE92EEA2EF02E72087E
:100DD6002C00920022000C12042F72087304031DCB
:100DE600F52EF62EFA2E22000C168C16042FF31F63
:100DF600FD2EFE2E042F7203FF3A2C0095002200D2
:100E06008C1208002C0098019B0122000E140E156E
:100E16007108803AF40080307402031D142F0130EB
:100E26007002031C172F182F1E2F70082C00980015
:100E360022000E11322F70087104031D232F242F58
:100E4600282F22000E140E15322FF11F2B2F2C2FB8
:100E5600322F7003FF3A2C009B0022000E10080070
:100E66008631B42687317830210099040530220076
:100E76008E0030308C0023008C018D018E010830ED
:100E860021008C00F0308D00C0308E000430200030
:100E96009C00FF309B00C0302C0093009201910112
:100EA600C030960095019401C030990098019701D1
:100EB600C0309C009B019A01F201F301F001F1019F
:100EC60020000D1E672F682F792F7308803AF500D2
:100ED60080307502031D712FFA3072020318742FC9
:100EE600752F792F3230F2070030F33D20008D1E2A
:100EF6007D2F7E2F8F2F7308803AF5007F30750285
:100F0600031D872F07307202031C8A2F8B2F8F2F0A
:100F1600CE30F207FF30F33D20000D1A932F942FA9
:100F26009A2F8D1A972F982F9A2FF201F3010D1EE3
:100F36009D2F9E2FA42F8D1EA12FA22FA42FF2012D
:100F4600F3010D1FA72FA82FB92F7108803AF500BE
:100F560080307502031DB12FFA3070020318B42FCA
:100F6600B52FB92F3230F0070030F13D20000E1FAB
:100F7600BD2FBE2FCF2F7108803AF5007F30750246
:100F8600031DC72F07307002031CCA2FCB2FCF2F8C
:100F9600CE30F007FF30F13D20000D1BD32FD42FAC
:100FA600DA2F0E1BD72FD82FDA2FF001F1010D1FE4
:100FB600DD2FDE2FE42F0E1FE12FE22FE42FF001AD
:100FC600F1018631D72687318731052787310330EE
:100FD600F6000830F5007730890BEF2FF50BEF2F71
:100FE600F60BEF2F0000632F80310228F001F1018C
:0A0FF600F201F30120008731332FD0
:020000040001F9
:04000E00E4FFFFDF2D
:00000001FF
