:020000040000FA
:08000000803102288731F92F3D
:100D44002100970108007A302100990022009601C1
:100D540008008631B52686318631A526863186314E
:100D6400A2268631080022008C018D018E013F30BD
:100D740021008C00F0308D00FF308E000F302300F6
:100D84008E008D0117308C0024008D018C01210010
:100D9400951722009D0108002C0092019501220064
:100DA4000C168C167308803AF40080307402031D0C
:100DB400DD2E01307202031CE02EE12EE72E7208B4
:100DC4002C00920022000C12FB2E72087304031DE7
:100DD400EC2EED2EF12E22000C168C16FB2EF31F9A
:100DE400F42EF52EFB2E7203FF3A2C009500220000
:100DF4008C1208002C0098019B0122000E140E1581
:100E04007108803AF40080307402031D0B2F013006
:100E14007002031C0E2F0F2F152F70082C00980042
:100E240022000E11292F70087104031D1A2F1B2F85
:100E34001F2F22000E140E15292FF11F222F232FEE
:100E4400292F7003FF3A2C009B0022000E1008008B
:100E54008631AB2687317830210099040530220091
:100E64008E0030308C0023008C018D018E010830FF
:100E740021008C00F0308D00C0308E000430200042
:100E84009C00FF309B00C0302C0093009201910124
:100E9400C030960095019401C030990098019701E3
:100EA400C0309C009B019A01F201F301F001F101B1
:100EB40020008D1F5E2F5F2FE02F0D1E622F632FEA
:100EC400742F7308803AF50080307502031D6C2F6F
:100ED400FA30720203186F2F702F742F3230F2071A
:100EE4000030F33D20008D1E782F792F8A2F730850
:100EF400803AF5007F307502031D822F073072029D
:100F0400031C852F862F8A2FCE30F207FF30F33D46
:100F140020000D1A8E2F8F2F952F8D1A922F932F1D
:100F2400952FF201F3010D1E982F992F9F2F8D1EDF
:100F34009C2F9D2F9F2FF201F3010D1FA22FA32F92
:100F4400B42F7108803AF50080307502031DAC2F70
:100F5400FA3070020318AF2FB02FB42F3230F007DD
:100F64000030F13D20000E1FB82FB92FCA2F710891
:100F7400803AF5007F307502031DC22F07307002DE
:100F8400031CC52FC62FCA2FCE30F007FF30F13D0A
:100F940020000D1BCE2FCF2FD52F0E1BD22FD32FDA
:100FA400D52FF001F1010D1FD82FD92FE42F0E1FDB
:100FB400DC2FDD2FE42FF001F101E42FF201F30126
:100FC400F001F1018631CE2687318631FC26873146
:100FD4000330F6000830F5007730890BEF2FF50B5E
:100FE400EF2FF60BEF2F00005A2F80310228F0016B
:0C0FF400F101F201F301200087312A2FE7
:020000040001F9
:04000E00E4FFFFDF2D
:00000001FF
